:040000004DEFFFF0D1
:020000040001F9
:10FE9A000001B5EFFFF0CB68000ECC6E9E92040E07
:10FEAA00CA6E120093ECFFF060ECFFF050ECFFF02A
:10FEBA006AECFFF01200700ED36E000E646E000E34
:10FECA009B6E000E0F012A6F12003C0E0F01496F44
:10FEDA00000E4D6F010E1A6F800E4C6F000E4B6FA5
:10FEEA007F0E4A6F3F0E2D17120001C003F002C0A9
:10FEFA0004F0D89004320332D8900432033203500B
:10FF0A000F014A6F01C003F0030E0316033AF00E05
:10FF1A0003164951CF0B0310496F1200000E8D6E64
:10FF2A00000E8C6E000E896E000E8E6E000E8A6EAA
:10FF3A00000E8F6E000E8B6E000E906EFE0E966E89
:10FF4A00FE0E976E92681E0E986EFE0E936E99685C
:10FF5A00FC0E946E95680F012569246923691200C5
:10FF6A0057ECFFF0000E086E000E076E0650D8B46C
:10FF7A00C1EFFFF0C3EFFFF0CBEFFFF0000E066E0C
:10FF8A0007C001F008C002F07AECFFF0000E086E1C
:10FF9A00000E076E08BEDBEFFFF0085009E15A0EAB
:10FFAA00075CD8A0DBEFFFF0DDEFFFF0DFEFFFF03B
:10FFBA00BBEFFFF007C001F008C002F07AECFFF0D7
:10FFCA00340E056EF20EE82EFED7052EFCD7074A30
:10FFDA00082A08BEFAEFFFF0085009E15A0E075C3A
:10FFEA00D8A0FAEFFFF0FCEFFFF0DFEFFFF0BBEF76
:06FFFA00FFF000EF00F033
:020000040020DA
:08000000FFFFFFFFFFFFFFFF00
:020000040030CA
:0E00000015187F7CF98B91FFFFC0FFE0FF40D9
:00000001FF
